S01D00004D6963726F5F42726F732D536D6172742D486F6D652E737265632E
S11300000C942A000C9447000C9447000C9447006D
S11300100C9447000C9447000C9447000C94470040
S11300200C9447000C9447000C9447000C94470030
S11300300C9447000C9447000C9447000C94470020
S11300400C9447000C9447000C9447000C94470010
S11300500C94470011241FBECFE5D4E0DEBFCDBF12
S113006010E0A0E6B0E0E8E9F0E002C005900D92EF
S1130070A036B107D9F720E0A0E6B0E001C01D9298
S1130080A036B207E1F70E9449000C944A000C9490
S10B00900000FFCFF894FFCF3C
S9030000FC
