:100000000C942A000C9433130C9447000C94470072
:100010000C9447000C9447000C9447000C94470044
:100020000C9447000C9447000C9447000C94470034
:100030000C9447000C9447000C9447000C94470024
:100040000C9447000C9447000C9447000C94470014
:100050000C94470011241FBECFE5D4E0DEBFCDBF16
:1000600012E0A0E6B0E0ECE4F5E302C005900D92EA
:10007000A230B107D9F712E0A2E0B2E001C01D92B0
:10008000A430B107E1F70E94EE110C94A41A0C946D
:100090000000EF92FF920F931F937B018C0120E0F1
:1000A00030E040E05FE40E94F50388238CF0C80153
:1000B000B70120E030E040E05FE40E94C1010E940F
:1000C000B3049B01AC01205030404040504806C072
:1000D000C801B7010E94B3049B01AC01B901CA0178
:1000E0001F910F91FF90EF900895A0E0B0E0EBE733
:1000F000F0E00C94BF17DC012B01FA019C919230C7
:1001000008F439C1EB018881823008F433C194309E
:1001100069F4843009F02FC111969C91119789815F
:10012000981709F428C1A1EEB0E025C1843009F484
:1001300021C18230A9F4923009F01DC19A01AD01AC
:1001400088E0EA010990AE01E90109929E0181501F
:10015000C1F7E201898111969C918923818308C1AD
:10016000923009F407C112962D903C901397EB0141
:100170008A819B811496AD90BD90CD90DC901797AD
:10018000EC80FD800E811F819101281B390BB90184
:1001900037FF04C066277727621B730B6032710537
:1001A0000CF061C0121613066CF537014801062EDB
:1001B00004C096948794779467940A94D2F721E0C8
:1001C00030E040E050E004C0220F331F441F551FB1
:1001D0006A95D2F721503040404050402E213F21B7
:1001E00040235123211531054105510521F021E01E
:1001F00030E040E050E079018A01E628F72808293C
:1002000019293CC0232BD1F1260E371E350146019A
:10021000062E04C096948794779467940A94D2F734
:1002200021E030E040E050E004C0220F331F441FC3
:10023000551F6A95D2F721503040404050402A2146
:100240003B214C215D21211531054105510521F04E
:1002500021E030E040E050E059016A01A628B728CB
:10026000C828D9280BC0821593052CF01C01AA249C
:10027000BB24650103C0EE24FF24870111969C91E5
:10028000D20111968C91981709F445C0992339F041
:10029000A80197012A193B094C095D0906C0A6016E
:1002A00095012E193F09400B510B57FD08C01182D3
:1002B0003382228224833583468357831DC081E0A5
:1002C00081833382228288279927DC01821B930B4A
:1002D000A40BB50B84839583A683B7830DC0220F2F
:1002E000331F441F551F24833583468357838281E0
:1002F000938101979383828324813581468157813D
:10030000DA01C9010197A109B1098F5F9F4FAF4F72
:10031000BF4328F30BC0918333822282EA0CFB1C7B
:100320000C1D1D1DE482F5820683178383E0808304
:10033000248135814681578157FF1AC0C901AA27F8
:1003400097FDA095BA2F81709070A070B0705695EF
:10035000479537952795822B932BA42BB52B848318
:100360009583A683B7838281938101969383828349
:10037000DF0101C0D201CD01CDB7DEB7E2E10C94BF
:10038000DB17A0E2B0E0E7ECF1E00C94CB17698357
:100390007A838B839C832D833E834F835887E9E048
:1003A000EE2EF12CEC0EFD1ECE010196B7010E943F
:1003B0002B068E010F5E1F4FCE010596B8010E94DD
:1003C0002B068A8991E089278A8BC701B801AE0183
:1003D000475E5F4F0E9475000E945605A096E6E0BA
:1003E0000C94E717A0E2B0E0E8EFF1E00C94CB1733
:1003F00069837A838B839C832D833E834F835887C5
:10040000F9E0EF2EF12CEC0EFD1ECE010196B701A6
:100410000E942B068E010F5E1F4FCE010596B8017C
:100420000E942B06C701B801AE01475E5F4F0E94D4
:1004300075000E945605A096E6E00C94E717A0E22E
:10044000B0E0E5E2F2E00C94BF1769837A838B8316
:100450009C832D833E834F835887CE010196BE0136
:10046000675F7F4F0E942B06CE010596BE016F5E2F
:100470007F4F0E942B069985923088F089898230BF
:10048000C8F0943019F4823051F404C0843029F457
:10049000923081F481EE90E0C6C0923049F420E0C1
:1004A0009A858A89981321E02A87CE010996BBC0D4
:1004B000823049F420E09A858A89981321E02A8BBA
:1004C000CE014196B0C02D843E844F8458886D88FB
:1004D0007E888F88988CEE24FF248701AA24BB2471
:1004E000650140E050E060E070E0E0E0F0E0C10174
:1004F00081709070892BE9F0E60CF71C081D191D1E
:100500009A01AB012A0D3B1D4C1D5D1D80E090E062
:10051000A0E0B0E0E614F7040805190520F481E036
:1005200090E0A0E0B0E0BA01A901480F591F6A1F8E
:100530007B1FAA0CBB1CCC1CDD1C97FE08C081E0F5
:1005400090E0A0E0B0E0A82AB92ACA2ADB2A3196B6
:10055000E032F10549F0660C771C881C991C569412
:10056000479437942794C3CFFA85EA892B893C892D
:100570008B859C85280F391F2E5F3F4F17C0CA01FE
:1005800081709070892B61F016950795F794E79428
:1005900080E090E0A0E0B0E8E82AF92A0A2B1B2BC3
:1005A00076956795579547952F5F3F4F77FDE7CF36
:1005B0000CC0440F551F661F771F17FD4160EE0CDE
:1005C000FF1C001F111F21503040403090E05907A0
:1005D00090E0690790E4790760F32B8F3C8FDB0193
:1005E000CA018F779070A070B07080349105A1051A
:1005F000B10561F447FD0AC0E114F10401051105DC
:1006000029F0405C5F4F6F4F7F4F40781A8EFE1786
:1006100011F081E08A8F4D8F5E8F6F8F78A383E01A
:10062000898FCE0149960E945605A096E2E10C946E
:10063000DB17A8E1B0E0EFE1F3E00C94C7176983A2
:100640007A838B839C832D833E834F835887B9E0C5
:10065000EB2EF12CEC0EFD1ECE010196B7010E948F
:100660002B068E010F5E1F4FCE010596B8010E942A
:100670002B062985223008F47EC03989323010F4E7
:10068000B8017CC08A859A8989278A87243011F02D
:10069000223031F4231709F06EC061EE70E06EC0B5
:1006A000343039F41D861E861F86188A1C861B86E8
:1006B00004C0323021F484E08987B7015FC02B8504
:1006C0003C858B899C89281B390B3C872B87ED84C3
:1006D000FE840F851889AD88BE88CF88D88CEA142F
:1006E000FB040C051D0540F4EE0CFF1C001F111F40
:1006F000215030403C872B8720E030E040E050E044
:1007000080E090E0A0E0B0E460E070E0EA14FB0478
:100710000C051D0540F0282B392B4A2B5B2BEA18C2
:10072000FB080C091D09B695A79597958795EE0CC2
:10073000FF1C001F111F6F5F7F4F6F31710531F775
:10074000DA01C9018F779070A070B0708034910584
:10075000A105B10561F427FD0AC0E114F10401050A
:10076000110529F0205C3F4F4F4F5F4F20782D87B8
:100770003E874F87588BBE01675F7F4FCB010E943A
:1007800056056896EAE00C94E317A8E1B0E0EBECBC
:10079000F3E00C94CB1769837A838B839C832D833E
:1007A0003E834F83588789E0E82EF12CEC0EFD1E26
:1007B000CE010196B7010E942B068E010F5E1F4FDE
:1007C000CE010596B8010E942B068985823040F043
:1007D0008989823028F0C701B8010E94A30601C0B0
:1007E0008FEF6896E6E00C94E717A8E1B0E0EBEF36
:1007F000F3E00C94CB1769837A838B839C832D83DE
:100800003E834F83588789E0E82EF12CEC0EFD1EC5
:10081000CE010196B7010E942B068E010F5E1F4F7D
:10082000CE010596B8010E942B068985823040F0E2
:100830008989823028F0C701B8010E94A30601C04F
:100840008FEF6896E6E00C94E717A8E1B0E0EBE2E2
:10085000F4E00C94CB1769837A838B839C832D837C
:100860003E834F83588789E0E82EF12CEC0EFD1E65
:10087000CE010196B7010E942B068E010F5E1F4F1D
:10088000CE010596B8010E942B068985823040F082
:100890008989823028F0C701B8010E94A30601C0EF
:1008A00081E06896E6E00C94E717A8E0B0E0EBE59D
:1008B000F4E00C94C8179B01AC0183E08983DA0152
:1008C000C9018827B7FD83959927AA27BB27B82E8A
:1008D000211531054105510519F482E089833AC09B
:1008E0008823A9F0203080E0380780E0480780E8BE
:1008F000580729F460E070E080E09FEC30C0EE24FF
:10090000FF248701E21AF30A040B150B02C07901D8
:100910008A018EE1C82ED12CDC82CB82ED82FE8250
:100920000F831887C801B7010E94070501971816A1
:10093000190684F4082E04C0EE0CFF1C001F111FC2
:100940000A94D2F7ED82FE820F831887C81AD90A5B
:10095000DC82CB82BA82CE0101960E94560528968F
:10096000E9E00C94E417ACE0B0E0E9EBF4E00C94BF
:10097000CF1769837A838B839C83CE010196BE0156
:100980006B5F7F4F0E942B068D81823061F1823038
:1009900050F1843021F48E81882351F12EC02F81B3
:1009A000388537FD20C06E812F3131051CF066235C
:1009B000F9F023C08EE190E0821B930B29853A85E4
:1009C0004B855C8504C056954795379527958A9544
:1009D000D2F76623B1F050954095309521953F4F61
:1009E0004F4F5F4F0EC020E030E040E050E009C0C4
:1009F0002FEF3FEF4FEF5FE704C020E030E040E033
:100A000050E8B901CA012C96E2E00C94EB17EF9282
:100A1000FF920F931F937B018C0180E0E81680E02A
:100A2000F80681E0080780E0180788F48FEFE816E1
:100A3000F1040105110531F028F088E090E0A0E014
:100A4000B0E017C080E090E0A0E0B0E012C080E02D
:100A5000E81680E0F80680E0080781E0180728F033
:100A600088E190E0A0E0B0E004C080E190E0A0E088
:100A7000B0E020E230E040E050E0281B390B4A0BA8
:100A80005B0B04C016950795F794E7948A95D2F707
:100A9000F701E751FF4F8081281B310941095109B6
:100AA000C9011F910F91FF90EF900895DF92EF928F
:100AB000FF920F931F93FC01E480F580068117815C
:100AC000D1808081823048F480E090E0A0E1B0E005
:100AD000E82AF92A0A2B1B2BA5C0843009F49FC0F1
:100AE000823021F4EE24FF24870105C0E114F104D3
:100AF0000105110519F4E0E0F0E096C06281738110
:100B00009FEF623879070CF05BC022E83FEF261BAD
:100B1000370B2A3131052CF020E030E040E050E086
:100B20002AC0B801A701022E04C076956795579593
:100B300047950A94D2F781E090E0A0E0B0E004C0CD
:100B4000880F991FAA1FBB1F2A95D2F70197A109E9
:100B5000B1098E219F21A023B1230097A105B105E2
:100B600021F081E090E0A0E0B0E09A01AB01282BF9
:100B7000392B4A2B5B2BDA01C9018F779070A0705B
:100B8000B07080349105A105B10539F427FF09C083
:100B9000205C3F4F4F4F5F4F04C0215C3F4F4F4F92
:100BA0005F4FE0E0F0E02030A0E03A07A0E04A0725
:100BB000A0E45A0710F0E1E0F0E079018A0127C0D3
:100BC0006038710564F5FB01E158FF4FD801C7019A
:100BD0008F779070A070B07080349105A105B10539
:100BE00039F4E7FE0DC080E490E0A0E0B0E004C07E
:100BF0008FE390E0A0E0B0E0E80EF91E0A1F1B1F93
:100C000017FF05C016950795F794E794319687E08E
:100C100016950795F794E7948A95D1F705C0EE24C9
:100C2000FF248701EFEFF0E06E2F67956627679549
:100C3000902F9F77D794DD24D7948E2F8695492FB8
:100C4000462B582F5D29B701CA011F910F91FF90C4
:100C5000EF90DF900895FC01DB01408151812281FA
:100C6000622F6F7770E0221F2227221F9381892F26
:100C7000880F822B282F30E0991F9927991F1196F2
:100C80009C93119721153105A9F541155105610571
:100C9000710511F482E037C082E89FEF13969C93B0
:100CA0008E9312979A01AB0167E0220F331F441F06
:100CB000551F6A95D1F783E08C930DC0220F331F27
:100CC000441F551F12968D919C911397019713966F
:100CD0009C938E931297203080E0380780E048077D
:100CE00080E4580758F314962D933D934D935C93ED
:100CF000179708952F3F310579F441155105610586
:100D0000710519F484E08C93089564FF03C081E0B9
:100D10008C9312C01C9210C02F57304013963C93F6
:100D20002E93129783E08C9387E0440F551F661F24
:100D3000771F8A95D1F7706414964D935D936D93E8
:100D40007C93179708951F93DC01FB019C919230CF
:100D500008F447C08081823008F443C0943051F4D5
:100D600011961C91843099F58181682F70E0611B88
:100D700071093FC0843021F0923031F48230B9F1F2
:100D80008181882389F12DC011961C9111978230A1
:100D9000F1F081811817D9F412962D913C91139797
:100DA000828193818217930794F028173907BCF04A
:100DB00014968D919D910D90BC91A02D248135812B
:100DC00046815781281739074A075B0718F4112312
:100DD00041F00AC082179307A407B50740F4112316
:100DE00019F061E070E005C06FEF7FEF02C060E0D6
:100DF00070E0CB011F910895DF93CF93CDB7DEB79D
:100E0000A1E3B0E0E1E3F0E0808180618C93A2E3B4
:100E1000B0E0E2E3F0E080818F7E8C93CF91DF91B0
:100E20000895DF93CF93CDB7DEB762970FB6F894EE
:100E3000DEBF0FBECDBF6F87788B898B9A8BA2E305
:100E4000B0E0E2E3F0E0808180618C938F85988947
:100E5000A989BA898B879C87AD87BE876B857C857E
:100E60008D859E8520E030E04AE753E40E941F0212
:100E7000DC01CB018F839887A987BA876F8178853A
:100E800089859A8520E030E040E85FE30E942504F0
:100E900088232CF481E090E09E838D833FC06F8196
:100EA000788589859A8520E03FEF4FE757E40E94D7
:100EB000C50318164CF56B857C858D859E8520E0D5
:100EC00030E040E251E40E941F02DC01CB01BC0192
:100ED000CD010E944900DC01CB019E838D830FC0B0
:100EE00089E190E09C838B838B819C810197F1F752
:100EF0009C838B838D819E8101979E838D838D81C1
:100F00009E81009769F714C06F81788589859A85DD
:100F10000E944900DC01CB019E838D838D819E81DF
:100F20009A83898389819A810197F1F79A838983CA
:100F3000A2E3B0E0E2E3F0E080818F7E8C936296E2
:100F40000FB6F894DEBF0FBECDBFCF91DF910895ED
:100F5000DF93CF93CDB7DEB76D970FB6F894DEBFB2
:100F60000FBECDBFE4E3F0E080EF8083E5E3F0E087
:100F70008FEF8083A5E3B0E0E5E3F0E080818F7040
:100F80008C930000E3E3F0E080818F708093020295
:100F9000809102028F3071F780E090E0A0EAB1E426
:100FA000898F9A8FAB8FBC8F698D7A8D8B8D9C8D3D
:100FB00020E030E04AE753E40E941F02DC01CB014D
:100FC0008D8B9E8BAF8BB88F6D897E898F89988D25
:100FD00020E030E040E85FE30E94250488232CF401
:100FE00081E090E09C8B8B8B3FC06D897E898F89DF
:100FF000988D20E03FEF4FE757E40E94C503181695
:101000004CF5698D7A8D8B8D9C8D20E030E040E22F
:1010100051E40E941F02DC01CB01BC01CD010E9402
:101020004900DC01CB019C8B8B8B0FC089E190E0E8
:101030009A8B898B89899A890197F1F79A8B898B89
:101040008B899C8901979C8B8B8B8B899C890097C2
:1010500069F714C06D897E898F89988D0E94490037
:10106000DC01CB019C8B8B8B8B899C89988B8F8728
:101070008F8598890197F1F7988B8F87E3E3F0E0EC
:1010800080818F7080930202809102028F3009F478
:1010900083CF80E090E0A0E2B2E48B879C87AD87AD
:1010A000BE876B857C858D859E8520E030E04AE794
:1010B00053E40E941F02DC01CB018F839887A9872C
:1010C000BA876F81788589859A8520E030E040E88D
:1010D0005FE30E94250488232CF481E090E09E8346
:1010E0008D833FC06F81788589859A8520E03FEFA9
:1010F0004FE757E40E94C50318164CF56B857C85B5
:101100008D859E8520E030E040E251E40E941F0280
:10111000DC01CB01BC01CD010E944900DC01CB0107
:101120009E838D830FC089E190E09C838B838B81AC
:101130009C810197F1F79C838B838D819E81019720
:101140009E838D838D819E81009769F714C06F8186
:10115000788589859A850E944900DC01CB019E83B0
:101160008D838D819E819A83898389819A8101975C
:10117000F1F79A838983E3E3F0E080818F708093B5
:101180000202809102028F3009F406CFE5E3F0E01D
:101190008FEE80830000E3E3F0E080818F70809326
:1011A0000202809102028F3019F01092030239C0BE
:1011B000E5E3F0E08FED80830000E3E3F0E0808181
:1011C0008F7080930202809102028F3021F081E0C3
:1011D0008093030226C0E5E3F0E08FEB80830000FC
:1011E000E3E3F0E080818F7080930202809102023D
:1011F0008F3021F082E08093030213C0E5E3F0E03A
:101200008FE780830000E3E3F0E080818F708093BC
:101210000202809102028F3009F4A8CE83E080930D
:101220000302809102028E3071F480910302882FB4
:1012300090E0880F991F880F991FFC01E751FE4F1E
:1012400080818D8F32C0809102028D3071F4809147
:101250000302882F90E0880F991F880F991FFC01C7
:10126000E651FE4F80818D8F20C0809102028B302D
:1012700079F480910302882F90E0880F991F0196DE
:10128000880F991FFC01E751FE4F80818D8F0DC0A3
:1012900080910302882F90E0880F991F880F991F73
:1012A000FC01E451FE4F80818D8F8D8D6D960FB6C0
:1012B000F894DEBF0FBECDBFCF91DF910895DF93CD
:1012C000CF93CDB7DEB7E9970FB6F894DEBF0FBE68
:1012D000CDBF89AFABE3B0E0EBE3F0E08081877F87
:1012E0008C93ABE3B0E0EBE3F0E080818F7E8C93F6
:1012F00080E090E0A0EAB1E48DAB9EABAFABB8AFBD
:101300006DA97EA98FA998AD20E030E04AE753E4AB
:101310000E941F02DC01CB0189AB9AABABABBCAB2B
:1013200069A97AA98BA99CA920E030E040E85FE395
:101330000E94250488232CF481E090E098AB8FA7CD
:101340003FC069A97AA98BA99CA920E03FEF4FE78C
:1013500057E40E94C50318164CF56DA97EA98FA904
:1013600098AD20E030E040E251E40E941F02DC0131
:10137000CB01BC01CD010E944900DC01CB0198AB3F
:101380008FA70FC089E190E09EA78DA78DA59EA590
:101390000197F1F79EA78DA78FA598A9019798AB04
:1013A0008FA78FA598A9009769F714C069A97AA992
:1013B0008BA99CA90E944900DC01CB0198AB8FA7A7
:1013C0008FA598A99CA78BA78BA59CA50197F1F742
:1013D0009CA78BA7A2E3B0E0E2E3F0E08081806805
:1013E0008C9380E090E0A0EAB1E48FA398A7A9A72E
:1013F000BAA76FA178A589A59AA520E030E04AE7B1
:1014000053E40E941F02DC01CB018BA39CA3ADA37C
:10141000BEA36BA17CA18DA19EA120E030E040E89D
:101420005FE30E94250488232CF481E090E09AA3D6
:1014300089A33FC06BA17CA18DA19EA120E03FEFBD
:101440004FE757E40E94C50318164CF56FA178A525
:1014500089A59AA520E030E040E251E40E941F02F5
:10146000DC01CB01BC01CD010E944900DC01CB01B4
:101470009AA389A30FC089E190E098A38F8F8F8DE5
:1014800098A10197F1F798A38F8F89A19AA101974D
:101490009AA389A389A19AA1009769F714C06BA1A7
:1014A0007CA18DA19EA10E944900DC01CB019AA3E1
:1014B00089A389A19AA19E8F8D8F8D8D9E8D019775
:1014C000F1F79E8F8D8FE8E3F0E089AD808380E0B7
:1014D00090E0A0EAB1E4898F9A8FAB8FBC8F698DC1
:1014E0007A8D8B8D9C8D20E030E04AE753E40E949A
:1014F0001F02DC01CB018D8B9E8BAF8BB88F6D896A
:101500007E898F89988D20E030E040E85FE30E947B
:10151000250488232CF481E090E09C8B8B8B3FC0CA
:101520006D897E898F89988D20E03FEF4FE757E4E2
:101530000E94C50318164CF5698D7A8D8B8D9C8D94
:1015400020E030E040E251E40E941F02DC01CB01C8
:10155000BC01CD010E944900DC01CB019C8B8B8B2F
:101560000FC089E190E09A8B898B89899A890197CC
:10157000F1F79A8B898B8B899C8901979C8B8B8B3C
:101580008B899C89009769F714C06D897E898F8942
:10159000988D0E944900DC01CB019C8B8B8B8B8941
:1015A0009C89988B8F878F8598890197F1F7988B05
:1015B0008F87A2E3B0E0E2E3F0E080818F778C9345
:1015C00080E090E0A0E2B1E48B879C87AD87BE8786
:1015D0006B857C858D859E8520E030E04AE753E46D
:1015E0000E941F02DC01CB018F839887A987BA87ED
:1015F0006F81788589859A8520E030E040E85FE357
:101600000E94250488232CF481E090E09E838D8342
:101610003FC06F81788589859A8520E03FEF4FE74D
:1016200057E40E94C50318164CF56B857C858D85A3
:101630009E8520E030E040E251E40E941F02DC0180
:10164000CB01BC01CD010E944900DC01CB019E838E
:101650008D830FC089E190E09C838B838B819C817B
:101660000197F1F79C838B838D819E8101979E83E7
:101670008D838D819E81009769F714C06F81788575
:1016800089859A850E944900DC01CB019E838D8368
:101690008D819E819A83898389819A810197F1F74F
:1016A0009A838983E9960FB6F894DEBF0FBECDBF4B
:1016B000CF91DF910895DF93CF93CDB7DEB7E7E306
:1016C000F0E08FEF8083AAE3B0E0EAE3F0E080810E
:1016D00088618C93A1E3B0E0E1E3F0E08081806871
:1016E0008C9388E30E945F098CE00E945F0986E08A
:1016F0000E945F0981E00E945F0980E80E945F0903
:10170000CF91DF910895DF93CF9300D0CDB7DEB7AF
:1017100089836A838981882349F48A81803130F4FE
:101720008A818F7080680E945F090BC08981813037
:1017300041F48A81803128F48A818F70806C0E9404
:101740005F090F900F90CF91DF910895DF93CF93B2
:10175000CDB7DEB7E9970FB6F894DEBF0FBECDBFA9
:1017600089AFABE3B0E0EBE3F0E0808188608C937D
:10177000A2E3B0E0E2E3F0E08081877F8C9380E039
:1017800090E0A0EAB0E48DAB9EABAFABB8AF6DA973
:101790007EA98FA998AD20E030E04AE753E40E948B
:1017A0001F02DC01CB0189AB9AABABABBCAB69A927
:1017B0007AA98BA99CA920E030E040E85FE30E9471
:1017C000250488232CF481E090E098AB8FA73FC0DC
:1017D00069A97AA98BA99CA920E03FEF4FE757E4BC
:1017E0000E94C50318164CF56DA97EA98FA998AD66
:1017F00020E030E040E251E40E941F02DC01CB0116
:10180000BC01CD010E944900DC01CB0198AB8FA740
:101810000FC089E190E09EA78DA78DA59EA5019799
:10182000F1F79EA78DA78FA598A9019798AB8FA7D1
:101830008FA598A9009769F714C069A97AA98BA9FF
:101840009CA90E944900DC01CB0198AB8FA78FA512
:1018500098A99CA78BA78BA59CA50197F1F79CA79E
:101860008BA7A2E3B0E0E2E3F0E0808180688C9394
:1018700080E090E0A0EAB0E48FA398A7A9A7BAA758
:101880006FA178A589A59AA520E030E04AE753E446
:101890000E941F02DC01CB018BA39CA3ADA3BEA3BE
:1018A0006BA17CA18DA19EA120E030E040E85FE328
:1018B0000E94250488232CF481E090E09AA389A358
:1018C0003FC06BA17CA18DA19EA120E03FEF4FE71F
:1018D00057E40E94C50318164CF56FA178A589A599
:1018E0009AA520E030E040E251E40E941F02DC01B2
:1018F000CB01BC01CD010E944900DC01CB019AA3C0
:1019000089A30FC089E190E098A38F8F8F8D98A154
:101910000197F1F798A38F8F89A19AA101979AA3B4
:1019200089A389A19AA1009769F714C06BA17CA132
:101930008DA19EA10E944900DC01CB019AA389A33D
:1019400089A19AA19E8F8D8F8D8D9E8D0197F1F724
:101950009E8F8D8FE8E3F0E089AD808380E090E09A
:10196000A0EAB0E4898F9A8FAB8FBC8F698D7A8D96
:101970008B8D9C8D20E030E04AE753E40E941F02EB
:10198000DC01CB018D8B9E8BAF8BB88F6D897E89EF
:101990008F89988D20E030E040E85FE30E942504C5
:1019A00088232CF481E090E09C8B8B8B3FC06D8969
:1019B0007E898F89988D20E03FEF4FE757E40E94A2
:1019C000C50318164CF5698D7A8D8B8D9C8D20E0A2
:1019D00030E040E251E40E941F02DC01CB01BC0177
:1019E000CD010E944900DC01CB019C8B8B8B0FC089
:1019F00089E190E09A8B898B89899A890197F1F71F
:101A00009A8B898B8B899C8901979C8B8B8B8B897B
:101A10009C89009769F714C06D897E898F89988D9C
:101A20000E944900DC01CB019C8B8B8B8B899C89AC
:101A3000988B8F878F8598890197F1F7988B8F877F
:101A4000A2E3B0E0E2E3F0E080818F778C9380E066
:101A500090E0A0EAB0E48B879C87AD87BE876B855A
:101A60007C858D859E8520E030E04AE753E40E9426
:101A70001F02DC01CB018F839887A987BA876F810A
:101A8000788589859A8520E030E040E85FE30E9410
:101A9000250488232CF481E090E09E838D833FC051
:101AA0006F81788589859A8520E03FEF4FE757E47D
:101AB0000E94C50318164CF56B857C858D859E8527
:101AC00020E030E040E251E40E941F02DC01CB0143
:101AD000BC01CD010E944900DC01CB019E838D83B6
:101AE0000FC089E190E09C838B838B819C8101975F
:101AF000F1F79C838B838D819E8101979E838D83DB
:101B00008D819E81009769F714C06F8178858985E2
:101B10009A850E944900DC01CB019E838D838D81D3
:101B20009E819A83898389819A810197F1F79A83AB
:101B30008983E9960FB6F894DEBF0FBECDBFCF9173
:101B4000DF910895DF93CF93CDB7DEB765970FB6DA
:101B5000F894DEBF0FBECDBF998B888B4A8B5B8B11
:101B60006C8B7D8B1F8680C08F85282F30E0888905
:101B70009989FC01E20FF31F80810E94A60B8A89DC
:101B80009B89AC89BD898B879C87AD87BE876B8518
:101B90007C858D859E8520E030E04AE753E40E94F5
:101BA0001F02DC01CB018F839887A987BA876F81D9
:101BB000788589859A8520E030E040E85FE30E94DF
:101BC000250488232CF481E090E09E838D833FC020
:101BD0006F81788589859A8520E03FEF4FE757E44C
:101BE0000E94C50318164CF56B857C858D859E85F6
:101BF00020E030E040E251E40E941F02DC01CB0112
:101C0000BC01CD010E944900DC01CB019E838D8384
:101C10000FC089E190E09C838B838B819C8101972D
:101C2000F1F79C838B838D819E8101979E838D83A9
:101C30008D819E81009769F714C06F8178858985B1
:101C40009A850E944900DC01CB019E838D838D81A2
:101C50009E819A83898389819A810197F1F79A837A
:101C600089838F858F5F8F878F85282F30E08889C4
:101C70009989FC01E20FF31F8081882309F074CF5A
:101C800065960FB6F894DEBF0FBECDBFCF91DF9142
:101C90000895DF93CF93CDB7DEB7A3970FB6F8942F
:101CA000DEBF0FBECDBF8E8F6F8F28A339A34AA38F
:101CB0005BA31D8EF2C08E8D882309F076C088E16B
:101CC0000E945F0988A199A1AAA1BBA1898F9A8FBF
:101CD000AB8FBC8F698D7A8D8B8D9C8D20E030E031
:101CE0004AE753E40E941F02DC01CB018D8B9E8BDF
:101CF000AF8BB88F6D897E898F89988D20E030E019
:101D000040E85FE30E94250488232CF481E090E002
:101D10009C8B8B8B3FC06D897E898F89988D20E04D
:101D20003FEF4FE757E40E94C50318164CF5698D45
:101D30007A8D8B8D9C8D20E030E040E251E40E9452
:101D40001F02DC01CB01BC01CD010E944900DC0176
:101D5000CB019C8B8B8B0FC089E190E09A8B898B98
:101D600089899A890197F1F79A8B898B8B899C894C
:101D700001979C8B8B8B8B899C89009769F78AC014
:101D80006D897E898F89988D0E944900DC01CB0185
:101D90009C8B8B8B8B899C89988B8F878F8598895F
:101DA0000197F1F7988B8F8775C08CE10E945F09CE
:101DB00088A199A1AAA1BBA18B879C87AD87BE876B
:101DC0006B857C858D859E8520E030E04AE753E475
:101DD0000E941F02DC01CB018F839887A987BA87F5
:101DE0006F81788589859A8520E030E040E85FE35F
:101DF0000E94250488232CF481E090E09E838D834B
:101E00003FC06F81788589859A8520E03FEF4FE755
:101E100057E40E94C50318164CF56B857C858D85AB
:101E20009E8520E030E040E251E40E941F02DC0188
:101E3000CB01BC01CD010E944900DC01CB019E8396
:101E40008D830FC089E190E09C838B838B819C8183
:101E50000197F1F79C838B838D819E8101979E83EF
:101E60008D838D819E81009769F714C06F8178857D
:101E700089859A850E944900DC01CB019E838D8370
:101E80008D819E819A83898389819A810197F1F757
:101E90009A8389838D8D8F5F8D8F9D8D8F8D981700
:101EA00008F409CFA3960FB6F894DEBF0FBECDBFDE
:101EB000CF91DF910895DF93CF93CDB7DEB781E067
:101EC0000E945F0980E80E945F09CF91DF91089529
:101ED000DF93CF93CDB7DEB7AAE3B0E0EAE3F0E05B
:101EE00080818D7F8C93A1E3B0E0E1E3F0E080811D
:101EF00080648C93CF91DF910895DF93CF93CDB71A
:101F0000DEB7E9E3F0E08081882F90E08270907086
:101F1000009741F0A2E3B0E0E2E3F0E0808180646A
:101F20008C9307C0A2E3B0E0E2E3F0E080818F7B16
:101F30008C93CF91DF910895DF93CF93CDB7DEB728
:101F4000AAE3B0E0EAE3F0E080818E7F8C93A1E326
:101F5000B0E0E1E3F0E0808182608C93E6E2F0E0C3
:101F600087E88083E7E2F0E080E48083CF91DF912F
:101F70000895DF93CF93CDB7DEB72F970FB6F894C0
:101F8000DEBF0FBECDBF8F87E7E2F0E08F858770A1
:101F900080648083A6E2B0E0E6E2F0E080818064C5
:101FA0008C93E6E2F0E08081882F90E08071907061
:101FB0000097B9F3A6E2B0E0E6E2F0E0808180614C
:101FC0008C9380E090E0A0E8BFE38B879C87AD878F
:101FD000BE876B857C858D859E8520E030E04AE755
:101FE00053E40E941F02DC01CB018F839887A987ED
:101FF000BA876F81788589859A8520E030E040E84E
:102000005FE30E94250488232CF481E090E09E8306
:102010008D833FC06F81788589859A8520E03FEF69
:102020004FE757E40E94C50318164CF56B857C8575
:102030008D859E8520E030E040E251E40E941F0241
:10204000DC01CB01BC01CD010E944900DC01CB01C8
:102050009E838D830FC089E190E09C838B838B816D
:102060009C810197F1F79C838B838D819E810197E1
:102070009E838D838D819E81009769F714C06F8147
:10208000788589859A850E944900DC01CB019E8371
:102090008D838D819E819A83898389819A8101971D
:1020A000F1F79A838983E4E2F0E0808191812F96B1
:1020B0000FB6F894DEBF0FBECDBFCF91DF9108956C
:1020C000DF93CF93CDB7DEB760970FB6F894DEBF3E
:1020D0000FBECDBF80E090E0A8ECB2E48B879C8778
:1020E000AD87BE876B857C858D859E8520E030E041
:1020F0004AE753E40E941F02DC01CB018F839887DB
:10210000A987BA876F81788589859A8520E030E034
:1021100040E85FE30E94250488232CF481E090E0EE
:102120009E838D833FC06F81788589859A8520E065
:102130003FEF4FE757E40E94C50318164CF56B8537
:102140007C858D859E8520E030E040E251E40E9450
:102150001F02DC01CB01BC01CD010E944900DC0162
:10216000CB019E838D830FC089E190E09C838B839C
:102170008B819C810197F1F79C838B838D819E815C
:1021800001979E838D838D819E81009769F714C08E
:102190006F81788589859A850E944900DC01CB0191
:1021A0009E838D838D819E819A83898389819A8183
:1021B0000197F1F79A83898380E00E94B90FAA27DB
:1021C00097FDA095BA2FBC01CD010E945504DC01FA
:1021D000CB01BC01CD0126EF38E24CE950E40E946E
:1021E0001F02DC01CB01BC01CD010E94B304DC0164
:1021F000CB01988B8F878F859889AA2797FDA0950B
:10220000BA2FBC01CD010E945504DC01CB01BC01F9
:10221000CD0120E030E040E251E40E941903DC01EE
:10222000CB01BC01CD010E94B304DC01CB01988B32
:102230008F878F85988960960FB6F894DEBF0FBEA2
:10224000CDBFCF91DF910895DF93CF93CDB7DEB7A8
:102250002C970FB6F894DEBF0FBECDBF9C878B873F
:102260008DB79EB708970FB6F8949EBF0FBE8DBF6F
:10227000EDB7FEB73196CE0101969183808380E65B
:1022800090E0938382838B859C85958384838FEDF7
:1022900090E0978386830E9403188DB79EB70896B7
:1022A0000FB6F8949EBF0FBE8DBF0E945B0F80E0FB
:1022B00060E00E94830B88E690E040E050E06FE22F
:1022C00074E40E94A20D81E060E00E94830BCE01C5
:1022D000019640E050E06FE274E40E94A20D2C965B
:1022E0000FB6F894DEBF0FBECDBFCF91DF9108953A
:1022F000DF93CF9300D000D0CDB7DEB79A83898328
:102300007C836B8329813A818B819C8128173907D3
:1023100044F0A2E3B0E0E2E3F0E0808182608C93DD
:1023200010C0E0E3F0E08081882F90E08270907030
:10233000009739F0A2E3B0E0E2E3F0E080818D7F26
:102340008C930F900F900F900F90CF91DF91089585
:10235000DF93CF93CDB7DEB7A1E3B0E0E1E3F0E0E8
:10236000808181608C93A1E3B0E0E1E3F0E08081C3
:1023700080648C93A1E3B0E0E1E3F0E080818460CD
:102380008C93AAE3B0E0EAE3F0E0808184608C9370
:10239000A5E5B0E0E5E5F0E0808182608C93ABE5F7
:1023A000B0E0EBE5F0E0808180648C93CF91DF9129
:1023B0000895DF93CF93CDB7DEB7A2E3B0E0E2E3B9
:1023C000F0E0808184608C93A2E3B0E0E2E3F0E08F
:1023D00080818B7F8C93CF91DF910895DF93CF9392
:1023E000CDB7DEB76D970FB6F894DEBF0FBECDBF89
:1023F0000E945B0B0E94680F0E949C0F0E94FC06CB
:102400000E94A81178948CE18D8F89E790E040E0DC
:1024100050E06FE274E40E94A20D80E090E0A8E436
:10242000B3E4898F9A8FAB8FBC8F698D7A8D8B8D3A
:102430009C8D20E030E04AEF54E40E941F02DC0152
:10244000CB018D8B9E8BAF8BB88F6D897E898F89E9
:10245000988D20E030E040E85FE30E942504882367
:102460002CF481E090E09C8B8B8B3FC06D897E8942
:102470008F89988D20E03FEF4FE757E40E94C50316
:1024800018164CF5698D7A8D8B8D9C8D20E030E08F
:1024900040E251E40E941F02DC01CB01BC01CD01EE
:1024A0000E944900DC01CB019C8B8B8B0FC088EC18
:1024B00090E09A8B898B89899A890197F1F79A8B99
:1024C000898B8B899C8901979C8B8B8B8B899C89B1
:1024D000009769F714C06D897E898F89988D0E9455
:1024E0004900DC01CB019C8B8B8B8B899C89988B61
:1024F0008F878F8598890197F1F7988B8F8781E077
:1025000060E00E94830B89E890E040E050E06FE2D9
:1025100074E40E94A20D0E94D91180E090E0AAEF1D
:10252000B3E48B879C87AD87BE876B857C858D8563
:102530009E8520E030E04AEF54E40E941F02DC0157
:10254000CB018F839887A987BA876F817885898522
:102550009A8520E030E040E85FE30E94250488236C
:102560002CF481E090E09E838D833FC06F8178855D
:1025700089859A8520E03FEF4FE757E40E94C50325
:1025800018164CF56B857C858D859E8520E030E0A6
:1025900040E251E40E941F02DC01CB01BC01CD01ED
:1025A0000E944900DC01CB019E838D830FC088EC23
:1025B00090E09C838B838B819C810197F1F79C83B6
:1025C0008B838D819E8101979E838D838D819E81DA
:1025D000009769F714C06F81788589859A850E9474
:1025E0004900DC01CB019E838D838D819E819A837E
:1025F000898389819A810197F1F79A8389830E945F
:102600007D0F8091FD019091FE01909300028093D7
:10261000FF010E9460109093FE018093FD014091A4
:10262000FD015091FE018D8D282F30E0CA01B901C6
:102630000E9478118091FF01909100028F3F9105D7
:1026400059F02091FD013091FE018091FF019091A0
:1026500000022817390799F28091FD019091FE013F
:102660000E942411CCCF1F920F920FB60F9211240B
:102670000F931F932F933F934F935F936F937F938A
:102680008F939F93AF93BF93EF93FF93DF93CF937A
:10269000CDB7DEB7CE54D040DEBFCDBFFE01ED5B7F
:1026A000FF4F80E090E0AAEFB3E480839183A283A0
:1026B000B3838E01015C1F4FFE01ED5BFF4F608114
:1026C00071818281938120E030E04AEF54E40E94DE
:1026D0001F02DC01CB01F80180839183A283B383C5
:1026E000FE01FF96608171818281938120E030E05C
:1026F00040E85FE30E94250488232CF481E090E009
:102700009EAF8DAF46C0FE01FF96608171818281D0
:10271000938120E03FEF4FE757E40E94C50318166E
:1027200064F5FE01ED5BFF4F6081718182819381D1
:1027300020E030E040E251E40E941F02DC01CB01C6
:10274000BC01CD010E944900DC01CB019EAF8DAFE1
:102750000FC088EC90E09CAF8BAF8BAD9CAD019728
:10276000F1F79CAF8BAF8DAD9EAD01979EAF8DAF56
:102770008DAD9EAD009769F716C0FE01FF96608192
:102780007181828193810E944900DC01CB019EAF5F
:102790008DAF8DAD9EAD9AAF89AF89AD9AAD0197E2
:1027A000F1F79AAF89AFFE01E75BFF4F118210820C
:1027B000FE01E55BFF4F1082118212821382FE013F
:1027C000E55BFF4F80E280830E945B0F88E990E029
:1027D00040E050E06FE274E40E94A20D81E060E00E
:1027E0000E94830BFE01E95BFF4F118210829BC0A8
:1027F000FE01E95BFF4F008111810E94A807282F8D
:10280000CE01855B9F4FFC01E00FF11F2083FE018D
:10281000E95BFF4F20813181CE01855B9F4FFC0139
:10282000E20FF31F80810E94A60B80E090E0AAEFE8
:10283000B3E48DAB9EABAFABB8AF6DA97EA98FA94A
:1028400098AD20E030E04AEF54E40E941F02DC0122
:10285000CB0189AB9AABABABBCAB69A97AA98BA90D
:102860009CA920E030E040E85FE30E942504882333
:102870002CF481E090E098AB8FA73FC069A97AA9BA
:102880008BA99CA920E03FEF4FE757E40E94C503C6
:1028900018164CF56DA97EA98FA998AD20E030E0FF
:1028A00040E251E40E941F02DC01CB01BC01CD01DA
:1028B0000E944900DC01CB0198AB8FA70FC088ECC8
:1028C00090E09EA78DA78DA59EA50197F1F79EA7E5
:1028D0008DA78FA598A9019798AB8FA78FA598A9C9
:1028E000009769F714C069A97AA98BA99CA90E94CD
:1028F0004900DC01CB0198AB8FA78FA598A99CA7B5
:102900008BA78BA59CA50197F1F79CA78BA7DE0150
:10291000A95BBF4FFE01E95BFF4F8081918101966A
:1029200011969C938E93FE01E95BFF4F808191810C
:10293000843091050CF45CCF80E090E0AAEFB3E422
:102940008FA398A7A9A7BAA76FA178A589A59AA5CB
:1029500020E030E04AEF54E40E941F02DC01CB018A
:102960008BA39CA3ADA3BEA36BA17CA18DA19EA1B3
:1029700020E030E040E85FE30E94250488232CF447
:1029800081E090E09AA389A33FC06BA17CA18DA1B7
:102990009EA120E03FEF4FE757E40E94C5031816C1
:1029A0004CF56FA178A589A59AA520E030E040E21A
:1029B00051E40E941F02DC01CB01BC01CD010E9449
:1029C0004900DC01CB019AA389A30FC088EC90E0F9
:1029D00098A38F8F8F8D98A10197F1F798A38F8F70
:1029E00089A19AA101979AA389A389A19AA1009785
:1029F00069F714C06BA17CA18DA19EA10E94490022
:102A0000DC01CB019AA389A389A19AA19E8F8D8F06
:102A10008D8D9E8D0197F1F79E8F8D8FCE01855BF9
:102A20009F4F29EF31E0B90144E050E00E94F617D2
:102A3000009709F4E0C0DE01A75BBF4FFE01E75B32
:102A4000FF4F8081918101968D939C93A2E3B0E02A
:102A5000E2E3F0E0808181608C930E945B0F88EA62
:102A600090E040E050E06FE274E40E94A20D81E04B
:102A700060E00E94830B87EB90E040E050E06FE263
:102A800074E40E94A20DFE01E75BFF4F908183E397
:102A9000891B0E94A60B81EC90E040E050E06FE2C1
:102AA00074E40E94A20D80E090E0AAEFB3E4898F65
:102AB0009A8FAB8FBC8F698D7A8D8B8D9C8D20E02A
:102AC00030E04AEF54E40E941F02DC01CB018D8B01
:102AD0009E8BAF8BB88F6D897E898F89988D20E012
:102AE00030E040E85FE30E94250488232CF481E075
:102AF00090E09C8B8B8B3FC06D897E898F89988DF0
:102B000020E03FEF4FE757E40E94C50318164CF54D
:102B1000698D7A8D8B8D9C8D20E030E040E251E410
:102B20000E941F02DC01CB01BC01CD010E944900C3
:102B3000DC01CB019C8B8B8B0FC088EC90E09A8BD7
:102B4000898B89899A890197F1F79A8B898B8B896F
:102B50009C8901979C8B8B8B8B899C89009769F74B
:102B600014C06D897E898F89988D0E944900DC018F
:102B7000CB019C8B8B8B8B899C89988B8F878F85C6
:102B800098890197F1F7988B8F87A2E3B0E0E2E391
:102B9000F0E080818E7F8C93FE01E75BFF4F8081A8
:102BA00091818330910509F00FCE0E945B0F81E087
:102BB00063E00E94830B87EC90E040E050E06FE21E
:102BC00074E40E94A20D81E062E00E94830B83ED19
:102BD00090E040E050E06FE274E40E94A20D60E0FB
:102BE00070E48CE196E40E941107FE01E75BFF4F61
:102BF000118210828FC00E945B0FABE3B0E0EBE369
:102C0000F0E0808184608C930E94A31680E090E0C5
:102C1000AAEFB3E48B879C87AD87BE876B857C85E5
:102C20008D859E8520E030E04AEF54E40E941F022B
:102C3000DC01CB018F839887A987BA876F8178855C
:102C400089859A8520E030E040E85FE30E94250412
:102C500088232CF481E090E09E838D833FC06F81B8
:102C6000788589859A8520E03FEF4FE757E40E94F9
:102C7000C50318164CF56B857C858D859E8520E0F7
:102C800030E040E251E40E941F02DC01CB01BC01B4
:102C9000CD010E944900DC01CB019E838D830FC0D2
:102CA00088EC90E09C838B838B819C810197F1F76A
:102CB0009C838B838D819E8101979E838D838D81E3
:102CC0009E81009769F714C06F81788589859A8500
:102CD0000E944900DC01CB019E838D838D819E8102
:102CE0009A83898389819A810197F1F79A838983ED
:102CF000ABE3B0E0EBE3F0E080818B7F8C93FE01EF
:102D0000E75BFF4F118210828FEF90E090930002FB
:102D10008093FF01C25BDF4FDEBFCDBFCF91DF915C
:102D2000FF91EF91BF91AF919F918F917F916F91A3
:102D30005F914F913F912F911F910F910F900FBE77
:102D40000F901F901895DF93CF93CDB7DEB76C9798
:102D50000FB6F894DEBF0FBECDBFA1E3B0E0E1E354
:102D6000F0E0808180628C93ECE4F0E011821082CC
:102D7000E6E4F0E083EC99E091838083EFE4F0E017
:102D800082E88083EEE4F0E08BE18083EAE4F0E027
:102D900081E490E09183808380E090E6AAE6B6E447
:102DA000898F9A8FAB8FBC8F698D7A8D8B8D9C8D1F
:102DB00020E030E04AE753E40E941F02DC01CB012F
:102DC0008D8B9E8BAF8BB88F6D897E898F89988D07
:102DD00020E030E040E85FE30E94250488232CF4E3
:102DE00081E090E09C8B8B8B3FC06D897E898F89C1
:102DF000988D20E03FEF4FE757E40E94C503181677
:102E00004CF5698D7A8D8B8D9C8D20E030E040E211
:102E100051E40E941F02DC01CB01BC01CD010E94E4
:102E20004900DC01CB019C8B8B8B0FC089E190E0CA
:102E30009A8B898B89899A890197F1F79A8B898B6B
:102E40008B899C8901979C8B8B8B8B899C890097A4
:102E500069F714C06D897E898F89988D0E94490019
:102E6000DC01CB019C8B8B8B8B899C89988B8F870A
:102E70008F8598890197F1F7988B8F87EAE4F0E0C6
:102E80008FEA90E09183808380E090ECAAEDB5E436
:102E90008B879C87AD87BE876B857C858D859E855E
:102EA00020E030E04AE753E40E941F02DC01CB013E
:102EB0008F839887A987BA876F81788589859A8556
:102EC00020E030E040E85FE30E94250488232CF4F2
:102ED00081E090E09E838D833FC06F8178858985F6
:102EE0009A8520E03FEF4FE757E40E94C50318168C
:102EF0004CF56B857C858D859E8520E030E040E239
:102F000051E40E941F02DC01CB01BC01CD010E94F3
:102F10004900DC01CB019E838D830FC089E190E0E5
:102F20009C838B838B819C810197F1F79C838B839E
:102F30008D819E8101979E838D838D819E810097D7
:102F400069F714C06F81788589859A850E94490048
:102F5000DC01CB019E838D838D819E819A83898341
:102F600089819A810197F1F79A8389836C960FB6CC
:102F7000F894DEBF0FBECDBFCF91DF9108952F92A1
:102F80003F924F925F926F927F928F929F92AF92F9
:102F9000BF92CF92DF92EF92FF920F931F93CF9346
:102FA000DF93CDB7DEB7CA1BDB0B0FB6F894DEBFDD
:102FB0000FBECDBF09942A88398848885F846E8403
:102FC0007D848C849B84AA84B984C884DF80EE804D
:102FD000FD800C811B81AA81B981CE0FD11D0FB656
:102FE000F894DEBF0FBECDBFED010895FB01DC01FB
:102FF00004C08D910190801921F441505040C8F7D0
:10300000881B990B0895AEE0B0E0E9E0F8E10C947C
:10301000CD170D891E8986E08C831A8309838FEF73
:103020009FE79E838D839E01275E3F4FCE010196D1
:103030006F89788DA9010E9427182F813885020F8A
:10304000131FF80110822E96E4E00C94E917ABE010
:10305000B0E0EDE2F8E10C94BF173C012B015A01FE
:10306000FC0117821682838181FD03C06FEF7FEF21
:10307000C6C19AE0892E1E010894211C311CF3015F
:103080002381F20123FD859123FF81912F01882364
:1030900009F4B2C1853239F423FD859123FF819172
:1030A0002F01853229F490E0B3010E941A1AE7CF6C
:1030B000982FFF24EE249924FFE1FF15D0F09B32D6
:1030C00069F09C3228F4903259F0933291F40EC09A
:1030D0009D3249F0903369F441E024C052E0F52A72
:1030E00084E0F82A28C098E0F92A25C0E0E1FE2A09
:1030F00022C0F7FC29C0892F80538A3070F4F6FE75
:1031000005C0989C902C1124980E15C0E89CE02CCA
:103110001124E80EF0E2FF2A0EC09E3229F4F6FCDC
:103120006BC140E4F42A07C09C3619F450E8F52A34
:1031300002C0983649F4F20123FD959123FF919145
:103140002F01992309F0B8CF892F8554833018F0C7
:103150008052833038F444E050E0A40EB51E5FE3A3
:1031600059830FC0933631F0933779F0933509F0D6
:1031700056C020C0F5018081898342E050E0A40E52
:10318000B51E610101E010E012C0F501C080D180E0
:10319000F6FC03C06FEF7FEF02C0692D70E042E0E4
:1031A00050E0A40EB51EC6010E940F1A8C015FE705
:1031B000F52214C0F501C080D180F6FC03C06FEF8A
:1031C0007FEF02C0692D70E042E050E0A40EB51E12
:1031D000C6010E94041A8C0150E8F52AF3FE07C0CC
:1031E0001AC080E290E0B3010E941A1AEA948E2D70
:1031F00090E008171907A8F30EC0F601F7FC8591B7
:10320000F7FE81916F0190E0B3010E941A1AE1105C
:10321000EA94015010400115110579F7EAC094367F
:1032200011F0993669F5F7FE08C0F501208131816A
:103230004281538184E090E00AC0F5018081918150
:103240009C01442737FD4095542F82E090E0A80E62
:10325000B91E9FE6F92257FF09C050954095309559
:1032600021953F4F4F4F5F4FE0E8FE2ACA01B90159
:10327000A1012AE030E00E94461AD82ED21840C0A0
:10328000953729F41F2D1F7E2AE030E01DC01F2D29
:10329000197F9F3661F0903720F4983509F0ACC063
:1032A0000FC0903739F0983709F0A6C004C028E065
:1032B00030E00AC0106114FD146020E130E004C069
:1032C00014FD166020E132E017FF08C0F5016081AF
:1032D00071818281938144E050E008C0F5018081D2
:1032E0009181BC0180E090E042E050E0A40EB51E68
:1032F000A1010E94461AD82ED2188FE7F82EF1228B
:10330000F6FE0BC05EEFF522D91438F4F4FE07C0C8
:10331000F2FC05C08FEEF82202C01D2D01C0192D50
:10332000F4FE0DC0FE01ED0DF11D8081803319F416
:1033300099EEF92208C01F5FF2FE05C003C08F2D71
:10334000867809F01F5F0F2DF3FC14C0F0FE0FC04C
:103350001E1510F09D2C0BC09D2C9E0C911A1E2D3D
:1033600006C080E290E0B3010E941A1A1F5F1E158A
:10337000C0F304C01E1510F4E11A01C0EE2404FFCE
:103380000FC080E390E0B3010E941A1A02FF1DC033
:1033900001FD03C088E790E00EC088E590E00BC017
:1033A000802F867891F001FF02C08BE201C080E29D
:1033B000F7FC8DE290E0B3010E941A1A06C080E388
:1033C00090E0B3010E941A1A9A94D914C0F3DA94C7
:1033D000F101ED0DF11D808190E0B3010E941A1AF8
:1033E000DD20A9F706C080E290E0B3010E941A1A1E
:1033F000EA94EE20C1F743CEF30166817781CB01D9
:103400002B96E2E10C94DB17FC01059061507040B3
:103410000110D8F7809590958E0F9F1F0895FC019D
:103420006150704001900110D8F7809590958E0FF3
:103430009F1F08950F931F93CF93DF938C01EB0190
:103440008B8181FF1BC082FF0DC02E813F818C814B
:103450009D812817390764F4E881F9810193F98384
:10346000E88306C0E885F985802F0995892B31F41A
:103470008E819F8101969F838E8302C00FEF1FEF85
:10348000C801DF91CF911F910F910895FA01AA27EA
:10349000283051F1203181F1E8946F936E7F6E5F97
:1034A0007F4F8F4F9F4FAF4FB1E03ED0B4E03CD045
:1034B000670F781F891F9A1FA11D680F791F8A1F28
:1034C000911DA11D6A0F711D811D911DA11D20D08F
:1034D00009F468943F912AE0269F11243019305D49
:1034E0003193DEF6CF010895462F4770405D41933A
:1034F000B3E00FD0C9F7F6CF462F4F70405D4A3387
:1035000018F0495D31FD4052419302D0A9F7EACF4E
:10351000B4E0A6959795879577956795BA95C9F77D
:1035200000976105710508959B01AC010A2E069470
:103530005795479537952795BA95C9F7620F731F29
:0C354000841F951FA01D0895F894FFCF74
:10354C00256425634320200074656D706572617479
:10355C00757265206973203A0057656C636F6D65F1
:10356C0020486F6D65202C20004D722E2061626406
:10357C00656C72686D616E00656E74657220706149
:10358C007373776F72643A0057726F6E6720706155
:10359C007373776F726400596F752068617665205C
:1035AC0000206C6566740061205468696566202192
:1035BC002120002020676F20617761792021212054
:1035CC0000000000000000000000010202030303E1
:1035DC000304040404040404040505050505050599
:1035EC000505050505050505050606060606060678
:1035FC00060606060606060606060606060606065F
:10360C000606060606060606060707070707070747
:10361C00070707070707070707070707070707072E
:10362C00070707070707070707070707070707071E
:10363C00070707070707070707070707070707070E
:10364C0007070707070707070708080808080808F7
:10365C0008080808080808080808080808080808DE
:10366C0008080808080808080808080808080808CE
:10367C0008080808080808080808080808080808BE
:10368C0008080808080808080808080808080808AE
:10369C00080808080808080808080808080808089E
:1036AC00080808080808080808080808080808088E
:1036BC00080808080808080808080808080808087E
:1036CC000808080808080808083134372A32353643
:1036DC0030333839234142434430303030FF00FF1F
:0236EC000000DC
:00000001FF
